:020000040800F2
:100000002807002055020008B91500083D15000812
:10001000B51500084D040008851600080000000012
:10002000000000000000000000000000C1150008F2
:100030005D04000800000000BD150008C51500089B
:100040006F0200086F0200086F0200086F020008CC
:100050006F0200086F0200086F0200086F020008BC
:100060006F0200086F0200086F0200086F020008AC
:100070006F0200086F0200086F0200086F0200089C
:100080006F0200086F0200086F0200086F0200088C
:10009000510400086F0200086F0200086F02000898
:1000A0006F0200086F0200086F0200086F0200086C
:1000B0006F0200086F0200086F0200086F0200085C
:1000C0006F0200086F0200086F0200086F0200084C
:1000D0006F0200086F0200086F0200086F0200083C
:1000E0006F0200086F0200086F0200086F0200082C
:1000F0006F0200086F0200086F0200086F0200081C
:100100006F0200086F0200086F0200086F0200080B
:100110006F0200086F0200086F0200086F020008FB
:100120006F0200086F0200086F0200086F020008EB
:100130006F0200086F0200086F0200086F020008DB
:100140006F0200086F0200086F0200086F020008CB
:100150006F0200086F0200086F0200086F020008BB
:100160006F0200086F0200086F0200086F020008AB
:100170006F0200086F0200086F0200080000000014
:100180006F0200086F02000800F002F800F052F859
:1001900014A696E8000CB244B344DA4501D100F04D
:1001A00049F8BAE80F000FA696E83000A5EB040561
:1001B00004EB0607AAEB0704A7F101074FEA1515A0
:1001C0004FEA3414A4F10104AC4201D300F032F838
:1001D00013F0010F18BFFB1A43F0010300F001F800
:1001E000DBE71847C4170000E4170000103A24BFEB
:1001F00078C878C1FAD8520724BF30C830C144BF8C
:1002000004680C6070470000704700000023002461
:1002100000250026103A28BF78C1FBD8520728BF16
:1002200030C148BF0B6070471FB501F0A7FB1FBD71
:1002300010B510BD00F0D0F81146FFF7F5FF01F042
:1002400023FA00F0EEF803B4FFF7F2FF03BC00F06E
:10025000F5F800000948804709480047FEE7FEE737
:10026000FEE7FEE7FEE7FEE7FEE7FEE7FEE7FEE766
:1002700004480549054A064B7047000071160008FE
:1002800089010008280100202807002028030020F9
:100290002803002053EA020C00F069802DE9F04B9E
:1002A0004FF00006002B1FBFB3FA83F503FA05F4E5
:1002B00024FA05F65E4012BF1643B2FA82F502FA3E
:1002C00005F4C5F120051EBF22FA05FC44EA0C0422
:1002D000203556EA044C4FEA144418BF641C4FF012
:1002E00000084FF00009904271EB030C39D300294C
:1002F00019BFB1FA81F701FA07F6B0FA80F700FAF0
:1003000007F6C7F120071EBF20FA07FC46EA0C06D5
:100310002037B6FBF4FCA7EB0507103F07F01F0BD7
:10032000CBF120062CFA06F60CFA0BFB44BFB346C1
:100330000026202FA4BF5E464FF0000B5BEA060CA0
:1003400008BF4FF0010B19EB0B0948EB0608ABFB9C
:10035000027C06FB02CC0BFB03CCC01B71EB0C0137
:10036000C1E70B46024641464846BDE8F08B13B54F
:10037000084318BF4FF0FF300146AFF30080BDE8DF
:100380001C4070474FF0000200B513469446964655
:10039000203922BFA0E80C50A0E80C50B1F1200198
:1003A000BFF4F7AF090728BFA0E80C5048BF0CC046
:1003B0005DF804EB890028BF40F8042B08BF7047A4
:1003C00048BF20F8022B11F0804F18BF00F8012B16
:1003D0007047704770477047754600F02BF8AE467F
:1003E00005006946534620F00700854618B020B541
:1003F000FFF73EFFBDE820404FF000064FF000073A
:100400004FF000084FF0000BAC46ACE8C009ACE878
:10041000C009ACE8C009ACE8C00921F007018D466D
:10042000704710B50446AFF300802046BDE8104089
:10043000FFF709BF0048704710000020014918204D
:10044000ABBEFEE72600020070470000FEE700009A
:1004500040F2AC00C2F2000000F07AB97047000030
:1004600072B600BFFEE7000090F82020013A012A92
:1004700008D8006800F114020020136819431160C5
:10048000704700BF00F1240201204FF4802113685F
:10049000194311607047000010B590F820E0D0F8C3
:1004A00000C0AEF1010EBEF1010FDCF808E011D87A
:1004B0001EF0E05F18D0CEF301640120A040186068
:1004C0008B68DBB1D1F804E0C86840EACE0040EAAE
:1004D000030E17E000F1240301204FF480211A6875
:1004E0001143196010BD00BF00F1240301204FF437
:1004F00000111A681143196010BD00BF0868CB686D
:1005000043EA405E0CF5C07000EB0413240140F890
:1005100004E00C69184640F8044F097D012903D115
:10052000016841F48071016050680121D860106851
:10053000986000201A681143196010BD90F82020BF
:10054000013A012A30D8B0B546F20060C4F200008A
:10055000026842F001020260026822F47C520260EA
:10056000D1F814E0CC694A6A0368012C43EA0222FC
:1005700002600EF01F024FF0010303FA02F2C3699A
:100580006FEA020C23EA0203C36113D02CBBC368D9
:1005900003EA0C03C360CB688C8844EA034300EB96
:1005A000CE0423640B4611E0416A41F4802141628C
:1005B00001207047C3681343C3600B688C8844EA0A
:1005C000034300EBCE04236401F10C038C681B8809
:1005D00043EA044300EBCE04636443688D6943EA55
:1005E0000204D1F810E0096A002D08BF03EA0C04E8
:1005F00044604369BEF1000F43EA020408BF03EA06
:100600000C040129446102D1C1691143C16101682F
:1006100021F0010101600020B0BD00007047000022
:10062000B0B590F82040013C012C7DD8D0F800C036
:1006300000290CBFDCF80C40DCF81040A4077DD08A
:100640000CF5D8754FEA011C55F80C4014F0040461
:10065000946055F80CE005EB011C19BF4FEADE056C
:1006600055604FEA5E551560DCF80050E64605F02F
:100670000205D5605EF8044F24075ABFDEF800403B
:1006800004F00F0408241461DEF800400029C4F3CC
:1006900007249461DEF800504FEA15455561DCF8F7
:1006A00008201A70026802EB0112D2F8B8214FEA52
:1006B00012225A70026802EB0112D2F8B8214FEAF6
:1006C00012429A70026802EB0112D2F8B8214FEA86
:1006D0001262DA70026802EB0112D2F8BC211A71C0
:1006E000026802EB0112D2F8BC214FEA12225A71C1
:1006F000026802EB0112D2F8BC214FEA12429A7151
:10070000026802EB0112D2F8BC214FEA1262DA71E0
:1007100000680CBF00F10C0100F110010020202244
:100720000B681A430A60B0BD00F1240101204FF4A8
:1007300080220B681A430A60B0BD00BF00F124019B
:1007400001204FF400120B681A430A60B0BD00008C
:100750002DE9F04F81B0044600684669D0F8049056
:100760008768D0F80CB0D0F810A0D0F81880F10746
:1007700004D1002530071DD424E000BFF90710D0B4
:100780000121BA07816009D4780700F1AF803807EA
:1007900000F1B680204600F04DFA02E0204600F05D
:1007A0004BFA0025F80500F18780F80300F1B180CD
:1007B000300707D51BF0100004D0206845F4007501
:1007C0001021C160700708D51BF0080005D0206813
:1007D0000821C160204600F0A9F9B00706D52068BD
:1007E000C068800702D0204600F0A2F9700607D545
:1007F0001AF0100004D0206845F4806510210161D2
:10080000B00608D51AF0080005D02068082101615B
:10081000204600F0DBF9F00606D520680069800765
:1008200002D0204600F0D4F9B00308D519F010002A
:1008300005D0206810214160204600F0CBF9F0037C
:1008400008D519F0080005D020680821416020462D
:1008500000F0FCF9300440F19B805FEA497040F100
:10086000948006F4807008EA102028435FEA8871BB
:10087000014648BF41F00201B20558BF01465FEA98
:1008800048700D4648BF45F00405700558BF0D4639
:10089000300540F17A8018F0700000F07680103852
:1008A000000905286CD8DFE800F003655D6159692F
:1008B00045F0080564E000BF20684FF48071BA0578
:1008C00081600BD4780515D438051DD4204600F07E
:1008D000B5F9F8037FF56CAF1BE000BF204600F0D0
:1008E000AFF9F8037FF564AF13E000BF4FF4006584
:1008F00058E700BF05F50055F8037FF559AF08E04C
:100900004FF480554EE700BF05F58045F8037FF5AD
:100910004FAF20684FF48031BA0381600AD4780366
:1009200010D4380314D4204600F08CF930073FF57A
:1009300041AF47E7204600F087F930073FF53AAF6F
:1009400040E700BF05F5004530073FF533AF39E715
:1009500005F5803530073FF52DAF33E745F08005CD
:100960000EE000BF45F020050AE000BF45F040055D
:1009700006E000BF45F0100502E000BF45F48075B9
:100980002068816921F07001816120680421416043
:1009900055B1606A40EA05012046616201B0BDE8D8
:1009A000F04FFFF73BBE00BF01B0BDE8F08F000085
:1009B000002804BF01207047B0B5044690F820001D
:1009C00010B9204600F06EF82068016841F001017E
:1009D000016000F021FA054620684168C90705D189
:1009E00000F01AFA401B0B28F6D310E0016821F042
:1009F0000201016000F010FA054600BF206841685E
:100A000089070DD500F008FA401B0B28F6D3606A61
:100A1000052140F400306062012084F82010B0BD50
:100A2000217E0268012922F0800208BF8032026024
:100A3000617E0268012922F0400208BF4032026054
:100A4000A17E0268012922F0200208BF2032026044
:100A5000E17E0268012922F0100218BF1032026004
:100A6000217F0268012922F0080208BF08320260D3
:100A7000617F0268012922F0040208BF043202608B
:100A8000D4E901C2D4E9033561691A432A43114309
:100A9000ACF101021143C16100200121606284F8C0
:100AA0002010B0BD80B586B046F200410068C4F2A7
:100AB0000001002288420592CDE9032202920192B0
:100AC00002D006B080BD00BF43F630000092C4F2F1
:100AD0000200036943F000730361036903F00073CC
:100AE0000093009B0092036843F0010303600068D9
:100AF00000F00100009000984FF4C05001900220D7
:100B0000CDE90202032004900920059001F5CE30C2
:100B100001A900F0B1F814200021002200F0FEF934
:100B2000142000F0E9F906B080BD00007047000015
:100B3000016846F20042C4F20002914218BF7047B9
:100B400010B540F2D404C2F2000404F1200204F112
:100B500044030021FFF764FD10B1BDE81040704769
:100B60006068216A8142F8D1B4F84400B4F84610B4
:100B700002BA08BA010C40F27000B4F84830C2F270
:100B800000000180110C1ABA120C94F84A3042800D
:100B9000028983714FF6FF739A42818011D08A1ABD
:100BA00014B214F5805F0AB202DA0369013304E07B
:100BB0000369B4F5805F01DD013B036102EB433261
:100BC000C2600181BDE8104070470000704700001E
:100BD0007047000070470000B0B5044690F8200050
:100BE00001281DD1022084F820002068016821F02E
:100BF0000101016000F010F9054600BF206840685F
:100C0000C00713D000F008F9401B0B28F6D3606A28
:100C100040F400306062052084F820000120B0BD5F
:100C2000606A40F4002060620120B0BD0020606274
:100C3000B0BD000070470000704700007047000022
:100C400070470000704700007047000070470000C8
:100C5000B0B5044600F0E0F8054640F20000C2F2EC
:100C600000000078611C18BF044400BF00F0D4F8F5
:100C7000401BA042FAD3B0BD2DE9F04F83B000F184
:100C8000200200F13E4741F60045009207F1FF7750
:100C9000C4F2020508224FEAB726A84208BF07227D
:100CA00000254FF000084FF00009072E38BF4FEA2B
:100CB000B72201920AE000BF09F1010908F1020818
:100CC000B9F1100F05F1040500F0A2800F680122B0
:100CD00002FA09FE17EA0E0AEED0D1F804C0032288
:100CE0000CF003077E1E02FA08F4012E6FEA040BD3
:100CF00012D88468CE6804EA0B0406FA08F6344376
:100D00008460446824EA0E06CCF3001404FA09F463
:100D10002643466004E000BF032F01D103271EE0F5
:100D2000C6688C6806EA0B0604FA08F42643022F0C
:100D3000C66014D16FF00302009E02EA590756F80C
:100D400007C005F01C040F220B69A2402CEA020226
:100D5000A3401A43F251D1F804C00CF00307026813
:100D600007FA08F302EA0B021A431CF4403F026040
:100D7000A2D0002243F644030292C4F202031A688E
:100D800043F6004442F480421A601A68C4F2010437
:100D900002F480420292029A29F003024FF6084CB4
:100DA0002244CFF6FF7C52F80C3005F00C070F26DA
:100DB000BE40B343019E06FA07F73B4342F80C30AE
:100DC000A2684B6842EA0A0743F60C4CDE0258BFA1
:100DD00022EA0A07A760C4F2010CDCF800209E0298
:100DE00042EA0A0758BF22EA0A07CCF80070626894
:100DF0009E0342EA0A0758BF22EA0A076760226890
:100E0000DB0342EA0A0758BF22EA0A07276053E7D2
:100E100003B0BDE8F08F000040F22410C2F20000E1
:100E20000068704740F2000040F22411C2F2000056
:100E3000C2F2000100780A681044086070470000A0
:100E400080B543F60040C4F20200016841F400712D
:100E50000160016841F480610160016841F48071C2
:100E60000160032000F086F80F2000F005F800F084
:100E700027F8002080BD000070B540F20006C2F2E5
:100E8000000640F208013278C2F200014FF47A7392
:100E90000968B3FBF2F20446B1FBF2F1084600F038
:100EA00037FB0F2C4FF0010508D838B94FF0FF3051
:100EB00021460022002500F031F87460284670BDFC
:100EC00082B0002043F640010190C4F202014A685A
:100ED00042F480424A604A6802F480420192019AD8
:100EE0000090086840F080500860086800F080506A
:100EF0000090009802B07047002848BF704700F08B
:100F00001F01012202FA01F11C2202EAD0004EF276
:100F10000012CEF2000281507047000010B54EF66C
:100F20000C5CCEF2000CDCF80030C3F3022E8EF025
:100F30000704042C28BF0424BEF103034FF0FF3E36
:100F40000EFA04F438BF0023A14399400EFA03F3CC
:100F50009A43114300F00F0200F160430901043A83
:100F600003F564436244002848BF02F10C03197082
:100F700010BD00004EF60C51CEF200010A684FF68B
:100F8000FF031A4060F30A2242F0806040F0FD70D7
:100F900008607047002804BF012070472DE9F04128
:100FA00043F60808C4F202080446D8F8F8030D46D0
:100FB00000F00700884207D288F8F853D8F8F80301
:100FC00000F00700A84277D12068810717D54107B4
:100FD00005D5D8F8001041F4E051C8F80010010719
:100FE00005D5D8F8001041F46041C8F80010D8F8D1
:100FF0000010A26821F0F0011143C8F80010C007EA
:1010000040D1D8F8F80300F00700A84207D988F8C3
:10101000F853D8F8F80300F00700A8424CD1206834
:10102000410707D5D8F80010E26821F4E0511143D8
:10103000C8F80010000708D5D8F80000216920F48E
:10104000604040EAC100C8F8000000F055F8D8F848
:10105000001041F69612C1F30311C0F60002515C74
:1010600040F2080220FA01F140F20400C2F200004E
:101070000068C2F200021160FFF7FEFE0020BDE82A
:10108000F08100BF6068811E022907D258F8081C51
:1010900089015CBF0120BDE8F08111E0012807D182
:1010A00058F8081C89035CBF0120BDE8F08107E007
:1010B00058F8081C890703D40120BDE8F08100BF5F
:1010C000D8F8001021F003010843C8F80000FFF72A
:1010D000A3FE064641F28837D8F80000616800F0A8
:1010E0000C00B0EB810F8CD0FFF796FE801BB8424E
:1010F000F2D90320BDE8F08110B543F60404C4F230
:101100000204606800F00C0142F200400829C0F2BD
:10111000F40007D0042918BF10BD41F20020C0F22E
:101120007A0010BD216801F03F022168236849025E
:10113000C3F3881106D4A1FB00010023FFF7AAF82E
:1011400007E000BF41F20020C0F27A004843B0FB44
:10115000F2F021680222C1F3014102EB4101B0FB30
:10116000F1F010BD002804BF012070472DE9F041C7
:1011700082B00446007843F60006C007C4F20206B7
:101180000CD0B06800F00C00042840F0818030687A
:10119000800303D56068002800F06881207880070C
:1011A0001BD5B06810F00C0F09D0B06800F00C002F
:1011B000082840F087807068400200F18380306822
:1011C000800703D5E068012840F05081306821692C
:1011D00020F0F80040EAC10030602078000713D406
:1011E000207840072AD4A569002D00F03A81B06824
:1011F00000F00C00082840F0A580012D40F00E8181
:10120000012002B0BDE8F0816069002800F0828012
:101210000020C4F247200121C0F8801EFFF7FCFD2A
:10122000054600BF706F8007DAD4FFF7F5FD401B5D
:101230000228F7D9032002B0BDE8F081306C5FEAE4
:10124000C0080AD400200190306C40F08050306417
:10125000306C00F080500190019847F20007C4F212
:1012600000073868C00547D4386840F4807038609B
:10127000FFF7D2FD054600BF3868C0053CD4FFF734
:10128000CBFD401B0228F7D9032002B0BDE8F08156
:10129000B06800F00C00082803D1706840023FF5E8
:1012A00076AF61683068B1F5803F07D0B1F5A02F07
:1012B00040F09A8040F480203060306840F4803004
:1012C00030609AE0E068002840F20000C4F2472055
:1012D0005CD001210160FFF79FFD05463068800763
:1012E0003FF574AFFFF798FD401B0228F6D90320A5
:1012F00002B0BDE8F08100BFA168306F012905D0C0
:10130000052955D140F004003067306F40F00100EE
:10131000306756E00020C4F247200021C0F8801E4C
:10132000FFF77AFD054600BF706F80077FF558AF65
:10133000FFF772FD401B0228F6D9032002B0BDE87A
:10134000F08100BF0027C4F2472700203866FFF76E
:1013500063FD022D05460DD13068800140F18A8081
:10136000FFF75AFD401B02284FF00300F4D902B0EA
:10137000BDE8F0813068800173D5FFF74DFD401B5B
:1013800002284FF00300F5D9F1E700BF002101600A
:10139000FFF742FD054600BF306880077FF51DAFAF
:1013A000FFF73AFD401B02284FF00300F4D9DEE7B7
:1013B00020F001003067306F002920F00400306712
:1013C0007AD0FFF729FD054641F28837306F800754
:1013D00000F18480FFF720FD401BB842F6D90320BE
:1013E00002B0BDE8F08100BF20F48030306030688A
:1013F000002920F4802030607AD0FFF70DFD0546EB
:10140000306880033FF5CAAEFFF706FD401B642835
:10141000F6D9032002B0BDE8F08100BF7068E16931
:1014200000F480028A4221D1216A00F03F028A4200
:101430001CD147F6C071626A0140B1EB821F15D121
:10144000A16A4FF6FF73C903994300F44032A1F536
:1014500080318A420AD1E16A00F07060B0EB016F1E
:1014600004D1002002B0BDE8F08100BF012002B02D
:10147000BDE8F08104F11C052FCD084340EA82103D
:10148000D9034FF6FF729143A1F5803140EA056020
:101490000843706001203866FFF7BEFC044600BFB9
:1014A00030688001DDD4FFF7B7FC001B02284FF045
:1014B0000300F5D95BE700BFFFF7AEFC054641F23C
:1014C000883700BF306F800708D5FFF7A5FC401BA9
:1014D000B8424FF00300F5D949E700BFB8F1000F5B
:1014E0003FF581AE306C20F0805030647BE600BF69
:1014F000FFF792FC054600BF306880037FF54EAED3
:10150000FFF78AFC401B64284FF00300F4D92EE754
:10151000411E0020B0EB116F1CBF012070474EF23E
:101520001002CEF2000251604EF62351CEF20001BD
:10153000F0230B700721906011607047FEE70000F8
:1015400080B540F2AC0046F20041C2F20000C4F2A5
:10155000000100234FF4302C032280E80E00C0E984
:10156000033CC0E905338383FFF722FA002808BF54
:1015700080BDBDE88040FEF773BF000082B0002050
:1015800043F630010190C4F202010A6842F0800281
:101590000A600A6802F080020192019A00900868CD
:1015A00040F001000860086800F001000090009819
:1015B00002B07047FEE70000FEE700007047000041
:1015C00070470000FFF72EBC70B592B006AC204605
:1015D0003021FEF7D7FE002543F640000595CDE902
:1015E0000355CDE901550095C4F2020001680226B9
:1015F00041F080510160006800F080500090009838
:1016000047F200000095C4F20000016841F48041F7
:1016100001600068A82100F480400090009801203B
:1016200006904FF4803007904FF480000D90042016
:101630000E90119020460C96CDE90F16FFF792FD03
:1016400010B172B6FEE700BF0F20CDE901064FF4DE
:10165000A05004904FF48050059001A805210395F7
:10166000FFF798FC10B172B6FEE700BF12B070BD74
:101670004EF68850CEF20000016841F4700101601E
:1016800070470000FEE700008AB0FFF7D9FBFFF7C4
:101690009BFFFFF773FFFFF753FF40F27005C2F2A5
:1016A000000500244FF6FF70AC6028810020C4F2D2
:1016B000600068614CF6CD40C3F6CC50A8610020B4
:1016C000C4F220100021E8614FF08D40C4F2FA41CD
:1016D00005F1300240F2D40813C2C2F200084FF400
:1016E000007040F20321C8E9000101200890CDE913
:1016F00006400E20099040F2AC00C2F2000069469C
:10170000C5E90044C5E90344C5E90844C5E90A44FC
:10171000CDE90044CDE90244CDE90444FEF70EFFD3
:1017200010B172B6FEE700BFD8F80000C8E9044463
:1017300088F81C4040F2AC04C8F808000820C2F247
:101740000004C8F818002046FFF746FA2046022198
:10175000FEF78AFE6420FFF77BFAB5F900009FEDE3
:10176000858A00EE100AB8EEC00A38EE400A95ED00
:101770000E1AB0EEC02AB4EE412AF1EE10FA85ED51
:10178000080A07DA9FED7C2AB0EE421AB0EE420A50
:101790003CE000BF95ED0A1A95ED0D2A30EE011AD6
:1017A000B1EE423AB4EE431AF1EE10FAB4EE421A38
:1017B000B8BFB0EE431AF1EE10FAC8BFB0EE421A4D
:1017C00095ED052A95ED063A95ED095A95ED074AEE
:1017D00023EE013A22EE002A32EE032A30EE453A99
:1017E00024EE033A95ED0C4A33EE022AB1EE443A68
:1017F000B4EE432AF1EE10FAB4EE442AB8BFB0EECC
:10180000432AF1EE10FAC8BFB0EE442A85ED090A6A
:10181000BDEEC20A10EE100A4CF2000985ED0A1A5C
:1018200085ED0B2ACFF6FF7910F5804FD8BF4846DB
:10183000002742464FF48046B0F5804FA8BF30469F
:1018400042F83C7F5760010A507140F2AC001171C0
:10185000A2F1340102F11003C2F20000FEF71CFEF7
:1018600010B172B6FEE700BF9FED439A40F2AC04A0
:10187000C2F2000422E000BFBDEEC20A10EE100A60
:1018800085ED093A85ED0A1A85ED0B2A10F5804F92
:10189000D8BF48464246B0F5804FA8BF304642F810
:1018A0003C7F010A576011715071A2F1340102F1BD
:1018B00010032046FEF7F0FD0028D2D10120FFF7EB
:1018C000C7F9B5F9000095ED0E1A00EE100AB8EE52
:1018D000C00A38EE400AB0EEC02AB4EE412AF1EE5A
:1018E00010FAB0EE492AB0EE491AB0EE493A85ED49
:1018F000080AC1DB95ED0A1A95ED0D2A30EE011AA2
:10190000B1EE423AB4EE431AF1EE10FAB4EE421AD6
:10191000B8BFB0EE431AF1EE10FAC8BFB0EE421AEB
:1019200095ED052A95ED063A95ED095A95ED074A8C
:1019300023EE013A22EE002A32EE032A30EE453A37
:1019400024EE033A95ED0C4A33EE022AB1EE443A06
:10195000B4EE432AF1EE10FAB4EE442AB8BFB0EE6A
:10196000432AB0EE403AF1EE10FAC8BFB0EE442A76
:1019700082E700BF0000C84200000000F1EE100A3C
:101980004FF6FF71C0F2C03120EA010040F0407014
:10199000E1EE100A704700000000000000000102A4
:1019A0000304060708090000C81900080000002009
:1019B00010000000EC010008D819000810000020F9
:1019C000180700000C0200080100000010000000D1
:0819D0000024F40000000000F7
:040000050800018965
:00000001FF
